:020000040800F2
:1000000000500020A12700085B0300085D030008E2
:100010005F0300086103000863030008000000009C
:100020000000000000000000000000006503000860
:100030006703000800000000690300086B03000864
:10004000E9270008E9270008E9270008E927000850
:10005000E9270008E9270008E9270008E927000840
:10006000E9270008E9270008E9270008E927000830
:10007000E9270008E9270008E9270008E927000820
:10008000E9270008E9270008E9270008E927000810
:10009000E9270008E9270008E9270008E927000800
:1000A000E9270008E9270008E9270008E9270008F0
:1000B000E9270008E9270008E9270008E9270008E0
:1000C000E9270008E9270008E9270008E9270008D0
:1000D000E9270008E9270008E9270008E9270008C0
:1000E000E9270008E9270008E927000800000000C8
:1000F0000000000000000000000000000000000000
:0C01000000000000000000005FF808F1A3
:10010C00034613F8012B002AFBD1181A013870474B
:10011C0053B94AB9002908BF00281CBF4FF0FF3162
:10012C004FF0FF3000F00CB8ADF1080C6DE904CEC7
:10013C0003F05EF8DDF804E0DDE9022304B070475B
:10014C00704700BF0348044B834202D0034B03B1FA
:10015C00184770476000002060000020000000007D
:10016C000548064B1B1AD90F01EBA301491002D00D
:10017C00034B03B11847704760000020600000205B
:10018C000000000010B5064C237843B9FFF7DAFFE6
:10019C00044B13B10448AFF300800123237010BD4E
:1001AC006000002000000000F034000808B5054B8A
:1001BC001BB105490548AFF30080BDE80840FFF7C7
:1001CC00CFBF00BF0000000064000020F034000826
:1001DC002DE9F04387B002AD0024029403940494FB
:1001EC0005941D4B9A6942F004029A619A6902F0D7
:1001FC0004020092009A9A6942F008029A619B6983
:10020C0003F008030193019BDFF85090224648F25B
:10021C001801484600F0CDFD114F22460121384609
:10022C0000F0C7FD48F218030293012603960494CC
:10023C004FF00208CDF814802946484600F0A8FC7F
:10024C00029603960494CDF814802946384600F0A3
:10025C009FFC07B0BDE8F08300100240000801408D
:10026C00000C014072B6FEE708B50E480E4B036059
:10027C004FF4827343604FF4004383600023C360E8
:10028C00036143614FF4007282611022C261036208
:10029C00436283620A23C36202F0D0F800B908BD3E
:1002AC00FFF7E0FFC40000200030014008B50A4809
:1002BC000A4B03604FF4E133436000238360C36057
:1002CC0003610C2242618361C36102F0CEF900B973
:1002DC0008BDFFF7C7FF00BF7C00002000380140BD
:1002EC0010B590B006AC28220021204602F0EAFAA4
:1002FC000023019302930393049305930223069323
:10030C0001230A9310230B93204600F033F960B9B4
:10031C000F2301930021029103910491059101A8EF
:10032C0000F05AFB18B910B010BDFFF79BFFFFF798
:10033C0099FF08B500F0D0F8FFF7D2FFFFF748FFA0
:10034C00FFF792FFFFF7B2FF00F0E0FDFEE7FEE7DC
:10035C00FEE7FEE7FEE7FEE770477047704708B51B
:10036C0000F0CCF808BD000082B00E4B9A6942F048
:10037C0001029A619A6902F001020092009ADA690C
:10038C0042F08052DA61DB6903F080530193019BE8
:10039C00054A536823F0E06343F08063536002B076
:1003AC00704700BF001002400000014000B587B04C
:1003BC00002302930393049305930268124B9A4211
:1003CC0002D007B05DF804FB03F560439A6942F470
:1003DC0080529A619A6902F480520092009A9A694A
:1003EC0042F004029A619B6903F004030193019BA0
:1003FC00A0230293022303930323059302A903482A
:10040C0000F0C6FBDDE700BF0030014000080140F2
:10041C0030B587B0002302930393049305930268CD
:10042C00184B9A4201D007B030BD03F558439A6976
:10043C0042F480429A619A6902F480420092009AD6
:10044C009A6942F004029A619B6903F004030193D8
:10045C00019B4FF400730293022303930323059330
:10046C0002AD094C2946204600F092FB4FF4806304
:10047C0002930023039304932946204600F088FB43
:10048C00D1E700BF003801400008014010B5044618
:10049C000E4B1A784FF47A73B3FBF2F30C4A1068D4
:1004AC00B0FBF3F000F0EAFC68B90F2C01D9012085
:1004BC000AE0002221464FF0FF3000F0CFFC054B44
:1004CC001C60002000E0012010BD00BF00000020D7
:1004DC00080000200400002008B5074A136843F008
:1004EC0010031360032000F0A7FC0F20FFF7CEFFD2
:1004FC00FFF73AFF002008BD00200240034A1168B4
:10050C00034B1B780B441360704700BF1C01002089
:10051C0000000020014B1868704700BF1C01002030
:10052C0038B50446FFF7F6FF0546B4F1FF3F02D09D
:10053C00044B1B781C44FFF7EDFF401BA042FAD381
:10054C0038BD00BF0000002082B0084B1B68084A71
:10055C00A2FB03235B0A00FB03F3019300BF019B87
:10056C005A1E0192002BF9D102B0704708000020EE
:10057C00D34D6210002800F0F18170B582B00446B2
:10058C00036813F0010F2CD0994B5B6803F00C033C
:10059C00042B1DD0964B5B6803F00C03082B12D078
:1005AC006368B3F5803F41D0002B55D103F18043F4
:1005BC0003F504331A6822F480321A601A6822F4A4
:1005CC0080221A6037E08A4B5B6813F4803FE7D0D7
:1005DC00874B1B6813F4003F03D06368002B00F0BB
:1005EC00BF81236813F0020F75D0814B5B6813F049
:1005FC000C0F5FD07E4B5B6803F00C03082B54D0C0
:10060C002369002B00F08A807A4B01221A60FFF7D5
:10061C0081FF0546764B1B6813F0020F75D1FFF76F
:10062C0079FF401B0228F5D903209EE1704A13681C
:10063C0043F480331360636843B3FFF76BFF0546E5
:10064C006B4B1B6813F4003FCBD1FFF763FF401BD0
:10065C006428F5D9032088E1B3F5A02F09D0644BA9
:10066C001A6822F480321A601A6822F480221A6006
:10067C00E1E703F18043A3F53C331A6842F480228E
:10068C001A601A6842F480321A60D4E7FFF742FF0E
:10069C000546574B1B6813F4003FA2D0FFF73AFFF7
:1006AC00401B6428F5D903205FE1514B5B6813F4C0
:1006BC00803FA5D14E4B1B6813F0020F03D023696A
:1006CC00012B40F04F814A4A136823F0F80361690B
:1006DC0043EAC1031360236813F0080F33D0A369F6
:1006EC00002B5CD0434B0122C3F88024FFF712FF90
:1006FC0005463F4B5B6A13F0020F21D1FFF70AFF4F
:10070C00401B0228F5D903202FE1394A136823F046
:10071C00F803616943EAC1031360DCE7354B00223F
:10072C001A60FFF7F7FE0546314B1B6813F0020FFA
:10073C00D1D0FFF7EFFE401B0228F5D9032014E1BE
:10074C000120FFF701FF236813F0040F00F09680DF
:10075C00274BDB6913F0805F34D1254BDA6942F00B
:10076C008052DA61DB6903F080530193019B012510
:10077C00214B1B6813F4807F26D0E368012B3DD0FE
:10078C00002B53D103F1804303F504331A6A22F092
:10079C0001021A621A6A22F004021A6233E0154B43
:1007AC000022C3F88024FFF7B5FE0546104B5B6AA8
:1007BC0013F0020FC7D0FFF7ADFE401B0228F5D98E
:1007CC000320D2E00025D3E70B4A136843F480736F
:1007DC001360FFF79FFE0646074B1B6813F4807FE0
:1007EC00CBD1FFF797FE801B6428F5D90320BCE022
:1007FC000010024000004242007000405F4A136A41
:10080C0043F001031362E36833B3FFF783FE06463C
:10081C005A4B1B6A13F0020F2FD1FFF77BFE801B84
:10082C0041F288339842F3D903209EE0052B09D07E
:10083C00524B1A6A22F001021A621A6A22F004025E
:10084C001A62E0E74D4B1A6A42F004021A621A6A05
:10085C0042F001021A62D6E7FFF75CFE0646474BF0
:10086C001B6A13F0020F08D0FFF754FE801B41F2F5
:10087C0088339842F3D9032077E0E5B9E369002B7C
:10088C0072D03E4A526802F00C02082A56D0022B53
:10089C0017D03B4B00221A66FFF73CFE0446374B41
:1008AC001B6813F0007F47D0FFF734FE001B0228B3
:1008BC00F5D9032059E0314AD36923F08053D36131
:1008CC00DCE72F4B00221A66FFF724FE05462B4B64
:1008DC001B6813F0007F06D0FFF71CFE401B02289C
:1008EC00F5D9032041E0236AB3F5803F1AD02349A0
:1008FC004B6823F47413226A606A024313434B60FF
:10090C001F4B01221A66FFF705FE04461B4B1B68A2
:10091C0013F0007F0ED1FFF7FDFD001B0228F5D967
:10092C00032022E0154A536823F40033A1680B43DB
:10093C005360DCE7002018E0002016E0012B16D0F5
:10094C000E4B5B6803F48031226A914211D103F49F
:10095C007013626A93420ED1002006E001207047AA
:10096C00012002E0012000E0002002B070BD012057
:10097C00FBE70120F9E70120F7E700BF0010024078
:10098C00000042420F4B5B6803F00C02082A01D0B6
:10099C000D487047C3F383420C49885C13F4803FC5
:1009AC000BD0084B5B68C3F34043094AD35C064A3F
:1009BC0002FB00F0B0FBF3F07047064B03FB00F0BA
:1009CC00704700BF0010024000127A000C3500087E
:1009DC000835000800093D00002800F0A08070B523
:1009EC000D460446524B1B6803F007038B420BD297
:1009FC004F4A136823F007030B431360136803F08B
:100A0C0007038B4240F08D80236813F0020F17D040
:100A1C0013F0040F04D0474A536843F4E063536067
:100A2C00236813F0080F04D0424A536843F4605310
:100A3C005360404A536823F0F003A1680B435360A2
:100A4C00236813F0010F31D06368012B20D0022BE7
:100A5C0025D0384A126812F0020F64D035494A6822
:100A6C0022F0030213434B60FFF754FD0646314B53
:100A7C005B6803F00C036268B3EB820F16D0FFF7D0
:100A8C0049FD801B41F288339842F0D9032045E0A0
:100A9C00284A126812F4003FE0D101203EE0254ABA
:100AAC00126812F0007FD9D1012037E0204B1B686F
:100ABC0003F00703AB420AD91D4A136823F007035E
:100ACC002B431360136803F00703AB422DD123684B
:100ADC0013F0040F06D0174A536823F4E063E1685F
:100AEC000B435360236813F0080F07D0114A536867
:100AFC0023F46053216943EAC1035360FFF742FFBB
:100B0C000C4B5B68C3F303130B4AD35CD8400B4B01
:100B1C0018600B4B1868FFF7B9FC002070BD012062
:100B2C0070470120FAE70120F8E70120F6E700BF43
:100B3C00002002400010024024350008080000206C
:100B4C0004000020014B1868704700BF080000200B
:100B5C0008B5FFF7F7FF044B5B68C3F30223034AA6
:100B6C00D35CD84008BD00BF001002401C35000803
:100B7C0008B5FFF7E7FF044B5B68C3F3C223034AD6
:100B8C00D35CD84008BD00BF001002401C350008E3
:100B9C0070B582B00024A4469EE07C4DAB4214D0CC
:100BAC000CD8A5F58015AB420FD005F57025AB42DE
:100BBC000BD0A5F58015AB421FD106E0744DAB42AE
:100BCC0003D005F58035AB4217D18B68A3B1012B4F
:100BDC000DD04261082410E0CC680EE0CC680434DF
:100BEC000BE0CC68083408E0CC680C3405E00261FA
:100BFC00082402E0002400E00424BEF1FF0F37D8E3
:100C0C0006464FEA8C0233680F25954023EA05030C
:100C1C0004FA02F2134333604B6813F0805F59D02F
:100C2C005C4B9A6942F001029A619B6903F00103E3
:100C3C000193019B4FEA9C02951C574B53F825607E
:100C4C000CF00305AD000F23AB4026EA0306534B13
:100C5C00984214D003F58063984279D003F58063F1
:100C6C00984277D003F58063984206D0042307E0BE
:100C7C00061DACF108029200C5E7032300E0002337
:100C8C00AB4033430232444D45F822304B6813F4E9
:100C9C00801F61D0424A936843EA0E0393604B680D
:100CAC0013F4001F5ED03E4AD36843EA0E03D360B0
:100CBC004B6813F4003F5BD0394A536843EA0E0388
:100CCC0053604B6813F4803F58D0354A136843EA9D
:100CDC000E0313600CF1010C0B6833FA0CF253D0B9
:100CEC00012202FA0CF203EA020E32EA0303F1D1FA
:100CFC004B68122B3FF651AF122B3FF67EAF01A57E
:100D0C0055F823F0D70B0008E50B0008EF0B000893
:100D1C00010C0008070C0008070C0008070C000861
:100D2C00070C0008070C0008070C0008070C00084B
:100D3C00070C0008070C0008070C0008070C00083B
:100D4C00070C0008070C0008E90B0008F50B00085D
:100D5C00012395E7022393E7114A936823EA0E03D4
:100D6C0093609CE70E4AD36823EA0E03D3609FE797
:100D7C000B4A536823EA0E035360A2E7084A136830
:100D8C0023EA0E031360A5E702B070BD0000221029
:100D9C00000031100010024000000140000801402A
:100DAC00000401408368194201D0012070470020E3
:100DBC0070470AB101617047090401617047C3684B
:100DCC0001EA030221EA030141EA02410161704791
:100DDC00002808DB0901C9B200F1604000F5614050
:100DEC0080F80013704700F00F000901C9B2014BE5
:100DFC001954704714ED00E000B500F00700C0F185
:100E0C00070CBCF1040F28BF4FF0040C031D062B7C
:100E1C000FD9C31E4FF0FF3E0EFA0CF021EA000171
:100E2C0099400EFA03FE22EA0E0241EA02005DF836
:100E3C0004FB0023EEE70000074AD36823F4E063C9
:100E4C001B041B0C000200F4E060034343F0BF637F
:100E5C0043F40033D360704700ED00E010B5044656
:100E6C00054BD868C0F30220FFF7C6FF01462046A9
:100E7C00FFF7AEFF10BD00BF00ED00E00138B0F190
:100E8C00807F0BD24FF0E0235861054AF02182F8A5
:100E9C0023100020986107221A61704701207047C7
:100EAC0000ED00E07047000010B503460C4A0D49F8
:100EBC000D48006840B10C4800680344521A934234
:100ECC0006D8094A136010BD0748084C0460F2E7C5
:100EDC0001F000FD0C2303604FF0FF30F3E700BF7F
:100EEC00005000200004000020010020B802002067
:100EFC0010B50446FFF704F94FF0FF3382B22146D8
:100F0C00014801F0E2FB10BD7C00002030B5A3B01D
:100F1C00FA20FFF705FB784C204601F019FA7748C8
:100F2C00FFF7E6FF7648FFF7E3FF7648FFF7E0FFB1
:100F3C0000238DF88730204600F096FA0DF18701DA
:100F4C00204600F0B2FA9DF8870000F045FA60B92F
:100F5C006D48FFF7CDFF204600F0AEFA002835DBD8
:100F6C000DF18701644800F0A0FA08AC9DF88730B9
:100F7C00664A4021204601F033FC2046FFF7B8FFBB
:100F8C005D4800F01DFC002864DB1CAB0193604B3A
:100F9C000093604B604A6149574800F02DFE0028D1
:100FAC005CDB554800F010FF5D48FFF7A1FF002502
:100FBC002C46132D56DC504800F0D4FE0446012874
:100FCC0050D06420FFF7ACFA0135F2E75548FFF733
:100FDC008FFF204600F0ECFA5348FFF789FF534887
:100FEC00FFF786FF5248FFF783FF002384F8243075
:100FFC0084F8263084F82530204600F035FA03AB0F
:10100C000193434B0093434B434A4449204600F021
:10101C00F3FD4848FFF76CFF08AC069B0093079B59
:10102C00454A5021204601F0DBFB2046FFF760FFCC
:10103C004248FFF75DFF4248FFF75AFF4148FFF770
:10104C0057FF01214048FFF7BAFE4FF4FA70FFF743
:10105C0067FAF6E73D48FFF74BFF96E73C48FFF78A
:10106C0047FF9EE7012C14D03A48FFF741FF1E21A1
:10107C00214800F0F7FDA8B93748FFF739FF37488A
:10108C00FFF736FF3648FFF733FF1B4800F09CFE96
:10109C0002E03448FFF72CFF012C07D03248FFF751
:1010AC0027FF1BE03148FFF723FFF5E7304C2046C4
:1010BC0001F0F4F801221849204600F07FFF30B906
:1010CC00204601F04DF82B48FFF712FF06E02A48A6
:1010DC00FFF70EFF02E0084800F044FE0024012157
:1010EC001948FFF76CFE4FF4FA70FFF719FA013448
:1010FC00092CF4D9EFE700BF440100203435000877
:10110C005C35000838350008703500085437000885
:10111C0080461C8680E14E68C0496E0A40787D018D
:10112C00C0370008DC450008A4350008D835000895
:10113C00143600085036000884360008A036000823
:10114C00DC36000818370008000C0140683700082E
:10115C00A8370008FC37000834380008603800084D
:10116C009C380008D837000848390008C0380008F7
:10117C0024010020F43800082439000808B5036A5B
:10118C000BB10846984708BD70B504460E460725B6
:10119C0010E0A36846FA05F000F001009847A36937
:1011AC009847636801209847A369984763680020B3
:1011BC009847013D002DECDA70BDF8B5044690F867
:1011CC002430012B03D02769072500261AE0476934
:1011DC00002FF9D1F7E7A3699847B84718B1012355
:1011EC00AB40DBB21E43636801209847A369984764
:1011FC0063680020984704E0636800209847A3695F
:10120C009847013D002D10DB94F82530012BE2D0DE
:10121C00636801209847A3699847B8470028EBD02A
:10122C000123AB40DBB21E43E6E73046F8BD38B5D0
:10123C00054690F82630012B0FD0CAB14FF400436D
:10124C00C1F30B0141EA0304210A2846FFF79CFF76
:10125C00E1B22846FFF798FF38BD3AB1802301F080
:10126C007F0119432846FFF78FFFF5E70023F6E7C8
:10127C000023E5E7F8B504460F4616461D46C3683D
:10128C0001209847636800209847236800209847FE
:10129C00A3699847012239462046FFF7C8FF002D65
:1012AC0004DBA36828469847A369984794F8243030
:1012BC0013B9E36800209847A3699847A369984736
:1012CC002046FFF77AFF3070236801209847E368C7
:1012DC0001209847A36998470020F8BD4308013BBB
:1012EC00DBB200F00100184400F00F0040EA0310DC
:1012FC00C0B270470EB430B5A6B0036A5BB10446F9
:10130C002AAB019302AD299A9021284601F0CCFA20
:10131C00236A2846984726B0BDE8304003B0704792
:10132C0070B504460E461546C3680120984763689D
:10133C0000209847236800209847A369984700220B
:10134C0031462046FFF773FF29462046FFF71CFF66
:10135C00A3699847236801209847A3699847002000
:10136C0070BD70B505460C46012A19D9104601EB23
:10137C004106FFF7B3FF024606F5C8712846FFF792
:10138C00CFFF002206F291112846FFF7C9FF04EBAC
:10139C004404002204F5C9712846FFF7C1FF70BD53
:1013AC0001EB4106002206F5C871FFF7B9FF802258
:1013BC0006F291112846FFF7B3FFE8E708B54FF0A6
:1013CC00FF33FFF757FF08BD08B5012240F2322169
:1013DC00FFF7A6FF08BD000061281DD843280AD2DC
:1013EC00212830D012D801282FD0112801D000206C
:1013FC007047012070474338C0B21A4BC34013F0FA
:10140C00010F01D10020704701207047412801D005
:10141C000020704701207047A12818D007D9D32885
:10142C001BD0E3281BD0C3280BD000207047812889
:10143C000FD091280FD0632801D0002070470120D5
:10144C007047012070470120704701207047012030
:10145C007047012070470120704701207047012020
:10146C00704700BF0140014038B5044690F8243065
:10147C00012B18D0182545F0240200212046FFF737
:10148C004FFFE369022098472A4600212046FFF7C8
:10149C0047FFE36902209847012204212046FFF709
:1014AC003FFF002038BD9925E5E708B50A46032122
:1014BC00FFF784FF08BD00002DE9F04F87B004460C
:1014CC003249FFF75BFE002753E06369002B48D0DD
:1014DC00002511E02E4B0293CDF80480CDF800B01E
:1014EC0053464A462B492046FFF704FF9DF8170048
:1014FC00FFF772FF28BB0135012D32DC84F8267012
:10150C0084F8246084F825502046FFF7ADFF0023B3
:10151C008DF817300DF117012046FFF7C6FF1E4B53
:10152C0053F827901D4B53F826A01D4B53F825B0AC
:10153C009DF817804046FFF74FFF0028CAD0194B83
:10154C00C9E7174B53F825300093144B53F826304A
:10155C00114A52F8272014492046FFF7CBFE0020F1
:10156C0011E00136012E03DC012EAED00025C3E7BD
:10157C000137012F01DC0026F4E70C492046FFF768
:10158C00FDFD4FF0FF3007B0BDE8F08F8439000847
:10159C006C430008B0390008D4470008CC47000859
:1015AC00C447000878390008DC390008043A000800
:1015BC0070B582B0044600268DF807608DF8066081
:1015CC005F49FFF7DBFDE36801209847A368012022
:1015DC009847A3699847236998470546A3683046FE
:1015EC009847A3699847236998470646E368012002
:1015FC00984705B17EB133462A4652492046FFF73B
:10160C0079FE51492046FFF7B9FD50492046FFF7B6
:10161C00B5FD02B070BD4E492046FFF7AFFD00236B
:10162C000DF1070203212046FFF724FE01230DF1E3
:10163C00060203212046FFF71DFE9DF807204549B1
:10164C002046FFF757FE9DF8062043492046FFF73A
:10165C0051FE9DF807201AB99DF80630FF2B16D0C5
:10166C009DF806309A4237D09A4258D03B492046D2
:10167C00FFF784FD3A492046FFF780FD39492046A3
:10168C00FFF77CFD38492046FFF778FDC1E7374965
:10169C002046FFF773FD36492046FFF76FFD3549AD
:1016AC002046FFF76BFD34492046FFF767FD3349B1
:1016BC002046FFF763FD32492046FFF75FFD3149B5
:1016CC002046FFF75BFD30492046FFF757FD2F49B9
:1016DC002046FFF753FD9CE7FF2AC5D12C49204635
:1016EC00FFF74CFD2B492046FFF748FD2A492046C1
:1016FC00FFF744FD29492046FFF740FD28492046C5
:10170C00FFF73CFD27492046FFF738FD26492046C8
:10171C00FFF734FD25492046FFF730FD79E72449D2
:10172C002046FFF7E7FD23492046FFF727FD224916
:10173C002046FFF723FD21492046FFF71FFD68E7F0
:10174C00343A0008543A00088C3A0008C83A0008A9
:10175C00083B0008443B0008703B0008544000085C
:10176C008C400008CC4000080C4100089C3B000851
:10177C00C83B0008083C0008483C0008683C0008CE
:10178C00A43C0008E43C0008043D0008403D00086F
:10179C007C3D0008B83D0008F83D0008383E0008C4
:1017AC00783E0008B43E0008F43E0008343F0008C0
:1017BC006C3F0008A83F0008E83F000828400008DC
:1017CC00F0B585B004462449FFF7D8FC002637460F
:1017DC000CE0224A00922A4621492046FFF78AFD56
:1017EC009DF80F309D4200D001370136042E18D8D9
:1017FC0000238DF80F301B4B9D5D2A461721204688
:10180C00FFF78EFD2046FFF7DFFD0DF10F021721CC
:10181C002046FFF7D3FD9DF80F309D42D9D0124AD8
:10182C00D8E7002217212046FFF77AFD2046FFF764
:10183C00CBFD4FB105233A460C492046FFF75AFD24
:10184C003FB9384605B0F0BD09492046FFF796FC74
:10185C00F6E74FF0FF37F4E73C4100083041000851
:10186C006C410008BC470008344100088C4100085A
:10187C00B04100082DE9F04F8FB08B46114609920C
:10188C000A93DDF860A00022CB1852415B0843EAB2
:10189C00C2730D930890002800F0C580BBF1000FB7
:1018AC0000F0C680BAF1000F00F0C580002205924E
:1018BC0001924FF0FF38DA46C346DDF860809BE0BA
:1018CC00002592E00D9BDB1B00937AE0AAEB000352
:1018DC0026E00122A8F80020049A88F80220029A37
:1018EC00A8F80420059A88F80620039A88F807209F
:1018FC0088F8089088F80940C8F80C70C8F81000EF
:10190C00009A01929B460134E4B2202C13D8224653
:10191C00002330462946FEF7FBFBB0EB0A03D5D477
:10192C00BBF1000FD5DB9B45D3DCECD1019A0099C0
:10193C008A42E8D9CDE709F101095FFA89F9B9F1D1
:10194C00060F09D84A46002338460699FEF7E0FBF5
:10195C0006460D460124D8E7049E0B9D731CDEB28F
:10196C00AE4233D8079B002B02DB029B9E42F5D282
:10197C00029B039A02FB0367089BA3FB0779CDF834
:10198C001890099B9F424FF0000179EB0103E5D3BE
:10199C000A9BBB4271EB0903E0D30C460B4638465D
:1019AC004946FEF7B5FB274B834274EB0101D5D3B7
:1019BC000C9BBB4223464A46934183D20D9BFB1A98
:1019CC0000934FF0020904960B95B8E7029B013384
:1019DC009BB20293029BB3F57A7F08D8079B002B2E
:1019EC00FFF66EAF039B013BDDB20026B8E70C9B04
:1019FC00059A0132D2B20592059A072A0BD8124ADF
:101A0C000598115C1256079201F07F020392032293
:101A1C0002920C93DEE7BBF1000F0FDBBBF1000071
:101A2C0018BF012001E04FF0FF300FB0BDE8F08F80
:101A3C004FF0FF30F9E74FF0FF30F6E74FF0FF3093
:101A4C00F3E700BF80B2E60EDC470008002800F088
:101A5C00C080F0B585B00E4617460446002900F04C
:101A6C00BB800B690093CB685D49FFF743FCB388DF
:101A7C00F279317A707A0390029101920093B378E3
:101A8C00328858492046FFF735FC7C22102120462D
:101A9C00FFF746FC327811212046FFF741FC3288D3
:101AAC00120A12212046FFF73BFCB27802F03F02EB
:101ABC0013212046FFF734FC327914212046FFF71E
:101ACC002FFCB288C2F3042215212046FFF728FC14
:101ADC00B27902F0070216212046FFF721FC002202
:101AEC0017212046FFF71CFC02221C212046FFF781
:101AFC0017FC327A023AD2B24FF4F0712046FFF75B
:101B0C000FFC022240F2E1112046FFF709FC727A29
:101B1C0000212046FFF725FC727A01212046FFF7B1
:101B2C0020FC002504E008222046FFF7F9FB0135D4
:101B3C00052D06DC05F1F00189B2002DF3D00B2246
:101B4C00F2E700224FF40C712046FFF7E9FB062266
:101B5C0018212046FFF7E4FB2046FFF735FC07224F
:101B6C0018212046FFF7DCFB2046FFF72DFC3588BB
:101B7C001D4B03FB05F51D4BA3FB0737BF09B5FB3D
:101B8C00F7F505352A461A492046FFF7B3FBE369FA
:101B9C002846984717492046FFF7F0FA01224FF4E0
:101BAC000C712046FFF7BCFB2046FFF70DFCE369E8
:101BBC000120984700224FF40C712046FFF7B0FB30
:101BCC002046FFF701FCE36901209847002005B08F
:101BDC00F0BD4FF0FF3070474FF0FF30F7E700BF1C
:101BEC00D84100080842000800130100D34D6210D0
:101BFC003C42000860420008F0B589B007460D462B
:101C0C0016461A460F9C03AB00930E9B3146284692
:101C1C00FFF730FE031E11DB012B17D03CB1A4469D
:101C2C0003AC0FCCACE80F002368CCF800302A468C
:101C3C0003A93846FFF70AFF09B0F0BD3246074941
:101C4C003846FFF757FB4FF0FF30F5E7079B32465E
:101C5C0003493846FFF74EFBE0E700BF904200080F
:101C6C00C04200082DE9F04184B004460F463549C6
:101C7C00FFF784FA4FF00008B8F1010F4BDCB8F114
:101C8C00000F02D08026002515E00026FBE700930C
:101C9C0043462A462C492046FFF72CFB002004B073
:101CAC00BDE8F081009343462A4628492046FFF7B9
:101CBC0021FB0135EDB23F2D2AD82A461C212046A6
:101CCC00FFF72EFB46F0060218212046FFF728FBF3
:101CDC002046FFF779FB46F0070218212046FFF754
:101CEC001FFB2046FFF770FBE3693846984700233B
:101CFC008DF80F300DF10F021F212046FFF75EFB10
:101D0C009DF80F3013F0010FC1D10E2BD1D0C9E7C4
:101D1C0008F10108B0E70E492046FFF72FFA0D49EC
:101D2C002046FFF72BFA0C492046FFF727FA0B4900
:101D3C002046FFF723FA0A492046FFF71FFA4FF017
:101D4C00FF30ACE7F8420008344300087043000849
:101D5C009C430008D44300080C440008404400088D
:101D6C008444000830B583B0044600238DF8073056
:101D7C000DF107021F21FFF721FB002819DB9DF84D
:101D8C000720531EDBB2FD2B0AD812F001050ED032
:101D9C00094B0A492046FFF7ADFA284603B030BD7F
:101DAC0007492046FFF7A6FA6FF00105F5E7054B4A
:101DBC00EFE74FF0FF35F0E7C84400080445000892
:101DCC00DC440008D044000870B582B006460E49C9
:101DDC00FFF7D4F9002413E000238DF807300B4BE8
:101DEC0033F814500DF1070229463046FFF7E6FA96
:101DFC009DF807302A4606493046FFF77BFA013436
:101E0C001A2CE9D902B070BD1C45000884470008A3
:101E1C002845000808B5C3690BB10846984708BDAA
:101E2C0070B504460E46072510E0A36846FA05F087
:101E3C0000F0010098476369984763680120984750
:101E4C0063699847636800209847013D002DECDAE0
:101E5C0070BD70B504460725002608E063680120B4
:101E6C00984763699847636800209847013D002DA7
:101E7C000ADB63699847236998470028EED0012351
:101E8C00AB40DBB21E43E9E7304670BD0EB430B553
:101E9C00A6B0C3695BB104462AAB019302AD299A83
:101EAC009021284600F000FDE3692846984726B0AB
:101EBC00BDE8304003B0704770B504461646C1F318
:101ECC000C05C36801209847636800209847236875
:101EDC000020984763699847290A2046FFF7A0FF1E
:101EEC00E9B22046FFF79CFF31462046FFF798FFEA
:101EFC0063699847236801209847636998470020D5
:101F0C0070BD70B504461646C1F30C0141F4004592
:101F1C00C368012098476368002098472368002015
:101F2C00984763699847290A2046FFF779FFE9B279
:101F3C002046FFF775FFE3680020984763699847D0
:101F4C00636998472046FFF784FF307023680120AF
:101F5C009847E3680120984763699847002070BD53
:101F6C0008B50122FF21FFF7A7FF08BD08B50A46F7
:101F7C000121FFF7C6FF08BD00B583B000238DF823
:101F8C0007300DF107020221FFF7BBFF00280ADB27
:101F9C009DF8073003F03003102B08D0302B08D0FD
:101FAC004BB9FA2000E0002003B05DF804FBD2200E
:101FBC00FAE7AA20F8E70020F6E700002DE9F04147
:101FCC0082B004460F4690465849FFF723FF032280
:101FDC0005212046FFF770FF3C2200212046FFF729
:101FEC006BFFA36902209847182200212046FFF7B7
:101FFC0063FFA3690220984700238DF807300DF189
:10200C0007012046FFF7B2FF83239DF807204849BC
:10201C002046FFF73BFF9DF80730832B6AD1204603
:10202C00FFF7AAFF0646434DA5FB0735AD0C2B4623
:10203C00024641492046FFF729FF0EB1AE4260D35C
:10204C003E4B9F4266D3032205212046FFF734FF07
:10205C00002208212046FFF72FFF012209212046EC
:10206C00FFF72AFF00220B212046FFF725FFB8F1CE
:10207C00010218BF012242F0040214212046FFF78E
:10208C001BFF012215212046FFF716FF0022162107
:10209C002046FFF711FF002217212046FFF70CFF07
:1020AC00002218212046FFF707FF002210212046AE
:1020BC00FFF702FF00220D212046FFF7FDFE002254
:1020CC003A212046FFF7F8FE2046FFF749FFA369A7
:1020DC0001209847B8F1010F25D0194A194920461B
:1020EC00FFF7D4FE18492046FFF794FE002002B0FB
:1020FC00BDE8F08115492046FFF78CFE4FF0FF300C
:10210C00F5E733462A4612492046FFF7BFFE4FF04B
:10211C00FF30ECE70F492046FFF77CFE0E492046C6
:10212C00FFF778FE8FE70D4AD8E700BF9C45000803
:10213C00BC45000883DE1B4318460008005A6202A7
:10214C008C450008E446000820470008E0450008DC
:10215C004446000874460008B04600087C45000858
:10216C0070B582B006460E49FFF754FE002413E00A
:10217C0000238DF807300B4B33F814500DF1070288
:10218C0029463046FFF7BDFE9DF807302A46064922
:10219C003046FFF77BFE01340E2CE9D902B070BD3E
:1021AC0060470008E44700087047000882B000232D
:1021BC00019303E000BF019B01330193019A034B90
:1021CC001B689A42F6D302B0704700BF0C00002087
:1021DC0008B5021E18BF012280210248FEF7E9FD56
:1021EC0008BD00BF0008014008B5021E18BF01223F
:1021FC0020210248FEF7DDFD08BD00BF00080140AC
:10220C0008B5021E18BF012210210248FEF7D1FDAD
:10221C0008BD00BF0008014008B5021E18BF01220E
:10222C0008210248FEF7C5FD08BD00BF00080140AB
:10223C0010B50446FDF764FF4FF0FF3382B2214620
:10224C00014800F042FA10BD7C00002008B5FEF7F2
:10225C0067F908BD08B580210348FEF7A3FD0128E6
:10226C0014BF0020012008BD0008014000B585B056
:10227C000023009301930293039380230093032381
:10228C00039308B10123019369460348FEF780FCD0
:10229C0005B05DF804FB00BF0008014010B5044612
:1022AC00012208210B48FEF784FD0120FFF7A8FF4F
:1022BC00094B2360094B6360094BA360094BE36036
:1022CC00094B2361094B6361094BA361094BE36122
:1022DC0010BD00BF000801400D220008F5210008C8
:1022EC00DD2100087922000861220008B9210008CC
:1022FC00592200083D2200082DE9F04184B06946BE
:10230C00002400940194029403944FF40046009628
:10231C00012701974FF00208CDF80C800B4D284691
:10232C00FEF736FC224631462846FEF742FD404673
:10233C00FEF7F6F83A4631462846FEF73AFD0A20F3
:10234C00FEF7EEF804B0BDE8F08100BF00080140D4
:10235C002DE9F04186B0044602AF002502950395A5
:10236C00049505952B4B9A6942F004029A619A697F
:10237C0002F004020092009A9A6942F008029A61F3
:10238C009B6903F008030193019B234E0122082152
:10239C003046FEF70EFD2A4620213046FEF709FD99
:1023AC00202302934FF00108CDF80C8004950323F1
:1023BC00059339463046FEF7EBFB0823029339466A
:1023CC003046FEF7E5FB4046FFF750FF2846FFF787
:1023DC00FFFE424610213046FEF7EBFCFFF78CFF68
:1023EC000E4B23600E4B63600E4BA3600E4BE360F1
:1023FC000E4B2361656184F824500D4BA3610D4B8A
:10240C00E3610D4B236284F8258084F8265006B0D6
:10241C00BDE8F081001002400008014025220008B0
:10242C00F5210008DD21000879220008612200084E
:10243C00B9210008592200083D220008002856D076
:10244C0010B50446436A33B94368B3F5827F05D0AF
:10245C000023C36102E00023036143610023A362F4
:10246C0094F85130002B3CD0022384F85130226870
:10247C00136823F040031360636803F48273A2684B
:10248C0002F404421343E26802F40062134322692B
:10249C0002F002021343626902F001021343A269C3
:1024AC0002F400721343E26902F038021343226A09
:1024BC0002F080021343A26A02F400522168134313
:1024CC000B60638B226803F0040353602268D369AA
:1024DC0023F40063D36100206065012384F851303C
:1024EC0010BD84F850302046FDF760FFBCE701209A
:1024FC007047026802F10C0353E8003F23F4907319
:10250C000C3242E800310029F3D1026802F11403C5
:10251C0053E8003F23F00103143242E80031002954
:10252C00F3D1036B012B05D0202380F8423000231C
:10253C0003637047026802F10C0353E8003F23F079
:10254C0010030C3242E800310029F3D1ECE7000013
:10255C0010B504460268136923F44053C1680B4359
:10256C00136183680269134342691A430168CB689B
:10257C0023F4B05323F00C031343CB60026853696C
:10258C0023F4407381690B4353610268134B9A42E5
:10259C0020D0FEF7DDFA024602EB820202EB820249
:1025AC0063689B00B2FBF3F20D48A0FB02314909B2
:1025BC00642303FB11231B013233A0FB03035B09D0
:1025CC0003F0F00202EB011203F00F032168134435
:1025DC008B6010BDFEF7CCFA0246DDE700380140F7
:1025EC001F85EB512DE9F04383B005460E46174687
:1025FC009946DDF828802B681C6836EA04040CBF69
:10260C0001240024BC4228D1B8F1FF3FF3D0FDF7E0
:10261C0081FFA0EB0900404523D8B8F1000F22D070
:10262C002B68DA6812F0040FE5D0802EE3D0402E30
:10263C00E1D01A6812F0080FDDD0002401941A685A
:10264C0001925B680193019B2846FFF752FF082318
:10265C006B6485F84040012000E0002003B0BDE829
:10266C00F0830320FAE70320F8E760B310B50446C3
:10267C0090F8413013B3242384F841302268D36896
:10268C0023F40053D3602046FFF762FF22681369DE
:10269C0023F4904313612268536923F02A03536196
:1026AC002268D36843F40053D36000206064202375
:1026BC0084F8413084F84230606310BD80F84030BB
:1026CC00FDF7A6FED7E7012070472DE9F04182B057
:1026DC001E4690F84130202B56D104460D469046AC
:1026EC00002955D00AB901204FE00023436421236F
:1026FC0080F84130FDF70EFF0746A4F82480A4F8BB
:10270C002680A368B3F5805F02D04FF0000814E078
:10271C0023692BB34FF000080FE0202384F84130DD
:10272C00032032E038F8023B2268C3F308035360FD
:10273C00E28C92B2013A92B2E284E38C9BB293B1F6
:10274C0000963B46002280212046FFF74BFF0028D5
:10275C00E3D1002DE6D015F8012B23685A60E7E78A
:10276C00A8460025E9E700963B460022402120467A
:10277C00FFF738FF18B9202384F8413005E02023F7
:10278C0084F84130032000E0022002B0BDE8F08163
:10279C000120FAE7FEF786FB0B480C490C4A002394
:1027AC0002E0D458C4500433C4188C42F9D3094AFB
:1027BC00094C002301E013600432A242FBD300F069
:1027CC008FF8FDF7B6FD7047000000206000002078
:1027DC004848000860000020B4020020FEE700001A
:1027EC000CB430B5184B0C1E1D689DB008DA8B2349
:1027FC004FF0FF302B601DB0BDE8304002B0704789
:10280C004FF40273ADF814304FF000031B930CBF60
:10281C00234604F1FF33049307934FF6FF730290A2
:10282C000690ADF81630284621AB209A02A90193E8
:10283C0000F0DCF8431CBCBF8B232B60002CDAD0DF
:10284C000022029B1A70D6E71000002030B5144607
:10285C00002C05461A469BB005DA8B2303604FF01B
:10286C00FF301BB030BD4FF40273ADF80C304FF09D
:10287C00000319930CBF234604F1FF330293059315
:10288C004FF6FF7300910491ADF80E3069461E9B14
:10289C0000F0ACF8431CBCBF8B232B60002CE0D0A9
:1028AC000022009B1A70DCE707B5009313460A461A
:1028BC00014603480068FFF7C9FF03B05DF804FB4D
:1028CC001000002003460244934200D1704703F8E5
:1028DC00011BF9E7014B1868704700BF100000207E
:1028EC0070B500260C4D0D4B5B1B9C10A64209D1FC
:1028FC00002600F0F7FD0A4D0A4B5B1B9C10A6420C
:10290C0005D170BD55F8043B98470136EEE755F8F4
:10291C00043B98470136F2E740480008404800085D
:10292C004048000844480008704770472DE9F047BC
:10293C001F468E688246BE420C469046334653D89C
:10294C00B1F90C0010F4906F2BD0656923680969FC
:10295C0005EB4505A3EB010905EBD5757B1C6D104B
:10296C004B44AB422A4684BF1D462A46430527D515
:10297C001146504600F054F9064658B34A462169B0
:10298C0000F0D8FBA38923F4906343F08003A38168
:10299C0026614E4426603B463E466561A5EB090523
:1029AC00A5601F463A464146206800F08BFB00208C
:1029BC00A3689B1BA36023683B442360BDE8F0879E
:1029CC00504600F051FB06460028E1D150462169E3
:1029DC0000F0BEFB0C23CAF80030A3894FF0FF3087
:1029EC0043F04003A381E9E73E46DBE72DE9F047DE
:1029FC001F468B8906461B060D4614469CB010D507
:102A0C000B6973B9402100F00BF92860286130B9CB
:102A1C000C2333604FF0FF301CB0BDE8F08740232F
:102A2C006B610023099320238DF8293030234FF05C
:102A3C0001080397644F8DF82A302346994613F802
:102A4C00012B0AB1252AF9D1B9EB040A0BD0534654
:102A5C00224629463046FFF769FF013000F0A4807A
:102A6C00099A5244099299F80030002B00F09C808E
:102A7C0000234FF0FF32CDE9052309F1010904933E
:102A8C0007938DF853301A934C46052214F8011B0A
:102A9C004D4800F041FB049BD0B9D80644BF20221E
:102AAC008DF85320190744BF2B228DF8532099F829
:102ABC0000202A2A13D04C4600204FF00A0C079A0B
:102ACC00214611F8013B303B092B49D968B913E079
:102ADC00C01B08FA00F01843A1460490D4E7039AEF
:102AEC00111D12680391002A01DB079204E0524287
:102AFC0043F002030792049323782E2B0AD16378B8
:102B0C002A2B32D1039B02341A1D1B68039243EA11
:102B1C00E3730593DFF8B49003224846217800F064
:102B2C00FBFA38B14022049BA0EB0900824013430E
:102B3C000134049314F8011B062225488DF8281043
:102B4C0000F0EAFA002835D0224818BB039B073363
:102B5C0023F0070308330393099B034409936CE7A1
:102B6C000C4601200CFB0232AAE700234FF00A0CA2
:102B7C00194601340593204610F8012B303A092AE6
:102B8C0003D9002BC6D00591C4E7044601230CFBE6
:102B9C000121F0E703AB00932A4630460E4B04A903
:102BAC00AFF30080421CD7D1AB895B063FF532AF47
:102BBC00099831E703AB00932A463046064B04A92B
:102BCC0000F020F9EEE700BF0248000808480008B2
:102BDC000C480008000000003929000870B50F4EA1
:102BEC000C463168054611B900F086FA3060214672
:102BFC00284600F081FA431C03D14FF0FF342046E5
:102C0C0070BDC41C24F00304A042F8D0211A28463D
:102C1C0000F072FA0130F2D1EFE700BFA8020020F9
:102C2C002DE9F843CD1C25F0030508350C2D38BFD4
:102C3C000C25002D064601DBA94204D90C23336078
:102C4C000020BDE8F883DFF8D48000F001FAD8F852
:102C5C0000301C4644BB29463046FFF7BFFF431CDF
:102C6C00044658D1D8F800402746002F43D1002CF9
:102C7C004BD023683946304604EB030900F03CFA8C
:102C8C00814542D1216830466D1A2946FFF7A6FFCF
:102C9C0001303AD023682B442360D8F800305A68AE
:102CAC0062BBC8F800700FE02268521B20D40B2ABC
:102CBC0017D96119A342256018BF5960636808BF12
:102CCC00C8F8001062514B60304600F0C7F904F1AF
:102CDC000B00231D20F00700C21A1CBF1B1AA350A7
:102CEC00AFE76268A3420CBFC8F800205A60EBE75C
:102CFC0023466468AEE73C467F68B6E71A465B68D5
:102D0C00A342FBD100235360DEE70C233046336033
:102D1C0000F0A4F994E70560D6E700BFAC020020F0
:102D2C002DE9F047164698468A680B690746934288
:102D3C00B8BF1346336091F843200C46DDF8209061
:102D4C000AB1013333602368990642BF33680233FA
:102D5C003360256815F0060506D104F1190AE368FD
:102D6C0032689B1AAB422BDC94F843302268003B50
:102D7C0018BF0123920630D44146384604F1430271
:102D8C00C847013023D02368226903F00603042BC3
:102D9C0014BF002533684FF0000608BFE56804F146
:102DAC001A0408BFED1A54F8123C08BF25EAE57561
:102DBC009342C4BF9B1AED18B5421AD1002008E00B
:102DCC000123524641463846C847013003D14FF0E3
:102DDC00FF30BDE8F0870135C1E73020E11881F8FC
:102DEC0043005A1C94F845102244023382F84310D5
:102DFC00C2E70123224641463846C8470130E6D097
:102E0C000136D9E72DE9F0430D7E85B0782D90463B
:102E1C0007460C4699460C9E01F1430207D8622DD9
:102E2C000AD8002D00F0D780582D00F0BC8004F19A
:102E3C00420684F842503BE0A5F16303152BF6D80B
:102E4C0001A151F823F000BFAD2E0008C12E0008DF
:102E5C003B2E00083B2E00083B2E00083B2E0008A2
:102E6C00C12E00083B2E00083B2E00083B2E00080C
:102E7C003B2E0008C92F0008EB2E00087B2F000802
:102E8C003B2E00083B2E0008EB2F00083B2E0008C1
:102E9C00EB2E00083B2E00083B2E0008832F000869
:102EAC0033681A1D1B68326004F1420684F8423004
:102EBC000123A1E033682068191D3160060601D595
:102ECC001D6803E04506FBD5B3F90050002D03DA6D
:102EDC002D236D4284F843300A235B4811E02168AE
:102EEC003368080653F8045B02D4490648BFADB2F8
:102EFC003360237E54486F2B5CD10823002184F867
:102F0C0043106668002EA66005DB21682E4321F075
:102F1C000401216050D01646B5FBF3F103FB115CA4
:102F2C0010F80CC006F801CDAC4663450D46F3D93C
:102F3C00082B0BD12368DB0708D5236961689942FC
:102F4C00DEBF302306F8013C06F1FF36921B2261EE
:102F5C00434621463846CDF8009003AAFFF7E0FE21
:102F6C0001304ED14FF0FF3005B0BDE8F08323683F
:102F7C0043F0200323607825344884F845502368B7
:102F8C00316813F0800F51F8045B03D113F0400F3C
:102F9C0018BFADB23160D90744BF43F020032360A2
:102FAC001DB11023AAE72848E7E7236823F0200384
:102FBC002360F6E70A23A1E71646B9E733682568CC
:102FCC00181D616930602E061B6801D5196002E07E
:102FDC006806FBD51980002316462361B8E73368D1
:102FEC0000211A1D32601E686268304600F094F8A9
:102FFC0008B1801B606063682361002384F8433050
:10300C00A6E73246414638462369C8470130A9D065
:10301C0023689B0713D4E068039B9842B8BF1846FB
:10302C00A2E70123324641463846C847013099D0C1
:10303C000135E36803995B1AAB42F2DCEBE7002540
:10304C0004F11906F5E700BF1348000824480008EE
:10305C000148FFF769BC00BFA40200200148FFF73C
:10306C0064BC00BFA40200202DE9F04107461446C1
:10307C000D4621B91146BDE8F041FFF7D1BD2AB983
:10308C0000F066F825462846BDE8F08100F0A8F867
:10309C008442064602D8B4EB500FF4D82146384689
:1030AC00FFF7BEFD804608B94546ECE7B442224620
:1030BC00294628BF324600F03DF82946384600F034
:1030CC0047F8F1E7884210B501EB020402D98442BB
:1030DC00234607D8431EA14207D011F8012B03F851
:1030EC00012FF8E70244824200D110BD13F8011DF4
:1030FC0002F8011DF7E7000038B50023054D044622
:10310C0008462B60FDF7D0FE431C02D12B6803B19F
:10311C00236038BDB0020020034610B5C9B202448A
:10312C009342184601D1002003E0047801338C420D
:10313C00F6D110BD0A44914200F1FF3300D1704723
:10314C0010B511F8014B914203F8014FF9D110BDA4
:10315C0038B50546002940D051F8043C0C1F002B13
:10316C00B8BFE418FFF774FF1C4A136833B96360E7
:10317C0014602846BDE83840FFF770BFA34208D959
:10318C00206821188B4201BF19685B6809182160FF
:10319C00EDE71A465B680BB1A342FAD911685018D7
:1031AC00A0420BD120680144501883421160E0D139
:1031BC0018685B68084410605360DAE702D90C2386
:1031CC002B60D6E7206821188B4201BF19685B6819
:1031DC000918216063605460CBE738BDAC02002055
:1031EC0051F8043C181F002BBCBF0B58C01870477B
:1031FC002DE9F047089D0F4604468E46002B48D11A
:10320C008A42164661D9B2FA82F24AB1C2F120035F
:10321C0001FA02FE20FA03F3964043EA0E0E9440A4
:10322C004FEA164CBEFBFCF1B7B20CFB11EE01FBE6
:10323C0007F0230C43EA0E43984209D9F31801F125
:10324C00FF3E80F0ED80984240F2EA800239334430
:10325C001B1AB3FBFCF00CFB103300FB07F7A4B2FA
:10326C0044EA0344A74209D9341900F1FF3380F032
:10327C00D980A74240F2D6803444023840EA01405B
:10328C000021E41B1DB10023D440C5E90043BDE877
:10329C00F0878B4206D90DB1C5E900010021084623
:1032AC00BDE8F087B3FA83F1002947D1BB4202D3C2
:1032BC00824200F20481841A67EB030201209646D5
:1032CC00002DE4D0C5E9004EE1E7002A00F0908023
:1032DC00B2FA82F2002A40F0A780881B0121370C39
:1032EC001FFA86FEB0FBF7FC07FB1C00230C43EA1D
:1032FC0000430EFB0CF0984207D9F3180CF1FF3881
:10330C0002D2984200F2E080C4461B1AB3FBF7F0DD
:10331C0007FB10330EFB00FEA4B244EA0344A6459F
:10332C0007D9341900F1FF3302D2A64500F2C98047
:10333C001846A4EB0E0440EA0C40A3E7C1F12006AA
:10334C008B4022FA06FC4CEA030C27FA06FA4FEAE9
:10335C001C49BAFBF9F88F4020FA06F309FB18AAAE
:10336C001FFA8CFE3B4300FA01F708FB0EF01C0C15
:10337C0044EA0A44A04202FA01F20BD91CEB040401
:10338C0008F1FF3A80F09980A04240F29680A8F1B3
:10339C0002086444241A98B2B4FBF9F309FB1344F1
:1033AC0003FB0EFE40EA0444A64508D91CEB0404BA
:1033BC0003F1FF307FD2A6457DD9023B644443EA3A
:1033CC000840A4EB0E04A0FB028E74454346F14664
:1033DC0061D35ED055B1FA1A64EB090404FA06F60F
:1033EC0022FA01F31E43CC40C5E9006400214EE7EC
:1033FC0043084FEA510C43EAC1710A0C42EA0C42F1
:10340C008BB2C407B2FBF6F143EA0243BCFBF6FCF9
:10341C00B646304637461F22181A41EA0C4161E77E
:10342C00714615E7184629E7C2F1200321FA03F08B
:10343C00964024FA03F397403B43370CB0FBF7F864
:10344C0007FB18001FFA86FE190C41EA004108FB25
:10345C000EF0884204FA02F43AD9711808F1FF3CD4
:10346C0001D288421ED8091AB1FBF7F808FB0EF0FE
:10347C0007FB18119BB243EA014383422FD2F31886
:10348C0008F1FF31C8D28342C6D2A8F102013344FD
:10349C00C2E747459ED2B8EB02036EEB0C0E013827
:1034AC00F14697E7301A0144A8F1020CB1FBF7F88A
:1034BC0008FB0EF0DCE7034681E7D0466AE70846D6
:1034CC00FEE63444023834E7ACF1020C33441CE71A
:1034DC00091AC446B1FBF7F808FB0EF0C8E74146E1
:1034EC009AE700BFF8B500BFF8BC08BC9E46704711
:0C34FC00F8B500BFF8BC08BC9E46704745
:103508000102000002030405060708090A0B0C0D56
:103518000E0F10100000000001020304000000005C
:103528000000000001020304060708090D0A0D0A3D
:103538003D3D3D3D3D3D3D3D3D3D3D3D3D3D3D3DB3
:103548003D3D3D3D3D3D3D3D3D3D3D3D3D3D3D3DA3
:103558000D0A0000414439353138206272696E67BE
:103568002D75700D0A0000007061727420494420A6
:10357800696D706C61757369626C653B2073776502
:103588006570696E672062757320636F6E66696720
:1035980075726174696F6E730D0A00000D0A2D2D26
:1035A8002D20726561646261636B20756E6176615E
:1035B800696C61626C653B20636F6E6669677572E2
:1035C800696E6720626C696E64202D2D2D0D0A00CE
:1035D800577269746573206D6179207374696C6CB6
:1035E800206265206C616E64696E672E2050726F70
:1035F8006772616D6D696E672074686520706172AD
:103608007420616E797761792E0D0A0056657269AA
:103618006679207769746820612073636F7065200C
:103628006F6E204F5554302F4F55543120616E64C2
:1036380020746865204C442F5354415455532070CE
:10364800696E2E0D0A0D0A000D0A436F6E666967D2
:1036580075726174696F6E207772697474656E2E05
:10366800204578706563746564206F6E204F5554EB
:10367800302E2E4F5554333A0D0A00002020256C69
:103688007520487A20202856434F20256C752048FD
:103698007A290D0A000000004966207468652073C5
:1036A800636F70652073686F777320746869732C13
:1036B80020746865207061727420776F726B732054
:1036C800616E64206F6E6C792072656164626163FB
:1036D8006B0D0A0069732062726F6B656E2E20494C
:1036E80066207468657265206973206E6F206F7537
:1036F8007470757420617420616C6C2C2077726909
:1037080074657320617265206E6F740D0A00000085
:103718006C616E64696E6720656974686572202DD6
:1037280020636865636B20414439353138207375EF
:1037380070706C69657320616E642069747320729F
:10374800657365742070696E2E0D0A00706172745D
:10375800204944203D203078253032580D0A000099
:103768005741524E494E473A206275732073656C33
:10377800662D74657374206661696C65643B2063AB
:103788006F6E66696775726174696F6E206D6179B5
:10379800206E6F7420737469636B0D0A000000005B
:1037A800636F6E66696775726174696F6E206661B2
:1037B800696C65640D0A000077616974696E672039
:1037C800666F7220504C4C206C6F636B0D0A0000C2
:1037D8003E3E3E20504C4C204C4F434B4544202D00
:1037E800206F757470757473206C697665203C3C25
:1037F8003C0D0A003E3E3E206E6F74206C6F636B7A
:1038080065642077697468207468652064656661FA
:10381800756C74207265666572656E636520636F8A
:103828006E666967203C3C3C0D0A00003E3E3E2027
:10383800504C4C204C4F434B454420616674657294
:10384800207265666572656E63652073776565705D
:10385800203C3C3C0D0A0000536574204144393536
:1038680031385F5245465F494E5055545F4346478D
:1038780020696E206164393531382E6820746F20D4
:103888007468652076616C75652061626F76650D78
:103898000A000000736F2066757475726520626F88
:1038A8006F7473206C6F636B20696D6D65646961FB
:1038B80074656C792E0D0A003E3E3E207374696C67
:1038C8006C206E6F74206C6F636B6564202D2073A1
:1038D800656520636865636B6C6973742061626FEA
:1038E8007665203C3C3C0D0A000000003E3E3E2030
:1038F80041444320636F6E6669677572656420662C
:103908006F7220696E7465726C6561766564204CAF
:10391800564453203C3C3C0D0A0000003E3E3E20ED
:1039280041444320636F6E66696775726174696F9D
:103938006E206661696C6564203C3C3C0D0A0000A1
:10394800736B697070696E672041444320636F6EC2
:103958006669673A206E6F2076616C6964207361CE
:103968006D706C6520636C6F636B0D0A000000005E
:103978003C3D3D2056414C49440000005B61757454
:103988006F70726F62655D207377656570696E67C9
:103998002062757320636F6E6669677572617469FA
:1039A8006F6E730D0A00000020202573202F20253C
:1039B80073202F2073616D706C65202573202D3E58
:1039C800205041525449442030782530325820251F
:1039D800730D0A005B6175746F70726F62655D20AC
:1039E8007573696E672025732C2025732C207361ED
:1039F8006D706C652025730D0A0000005B6175749D
:103A08006F70726F62655D206E6F20776F726B6981
:103A18006E6720636F6E66696775726174696F6E31
:103A280020666F756E640D0A000000005B646961B2
:103A3800676E6F73655D205344494F2064726976E1
:103A48006520746573740D0A0000000020204D4342
:103A580055206472697665732068696768202D3E11
:103A68002072656164732025642C20647269766510
:103A780073206C6F77202D3E20726561647320255A
:103A8800640D0A0020205344494F20646F65732059
:103A98006E6F7420666F6C6C6F7720746865206D2C
:103AA80061737465722E20546865206E6574206990
:103AB800732073686F72746564206F720D0A00005A
:103AC80020206C6F6164656420627920736F6D6576
:103AD8007468696E6720656C73652E204669782066
:103AE80074686973206265666F726520616E7974A7
:103AF80068696E6720656C73652E0D0A000000000A
:103B080020205344494F20666F6C6C6F7773207484
:103B18006865206D6173746572207768656E2064CE
:103B2800726976656E3A206E6574206973206E6FCF
:103B3800742073686F727465640D0A0020207265C2
:103B480061642077697468205344494F207061721A
:103B58006B6564206C6F7720202D3E2030782530EF
:103B680032580D0A00000000202072656164207739
:103B7800697468205344494F207061726B656420F2
:103B880068696768202D3E203078253032580D0A44
:103B9800000000002020526573756C7420747261F7
:103BA800636B7320746865207061726B6564206C48
:103BB8006576656C2065786163746C792E0D0A00F2
:103BC8002020546865206C696E6520697320464C16
:103BD8004F4154494E4720647572696E6720746876
:103BE800652072656164207068617365202D20749A
:103BF8006865204144393531382069730D0A000061
:103C080020206E6F742064726976696E672069740B
:103C18002E2054686973206973206E6F74206120A8
:103C280073616D706C696E67206F722074696D695D
:103C38006E672070726F626C656D2E0D0A00000051
:103C480020204C696B656C79206361757365732CF2
:103C580020696E206F726465723A0D0A00000000D8
:103C680020202020312E2041205245534554206FDA
:103C78007220706F7765722D646F776E2070696E31
:103C8800206F6E20746865207061727420697320DB
:103C980061737365727465642E0D0A0020202020FC
:103CA800322E204353206973206E6F742072656131
:103CB8006368696E67207468652070617274277321
:103CC8002043532070696E2028636865636B2074F5
:103CD8006865206E65742C0D0A00000020202020E5
:103CE8002020206E6F74206A7573742074686520B4
:103CF8004D43552070696E292E0D0A002020202082
:103D0800332E20537570706C696573206D697373F9
:103D1800696E67206F72206F7574206F6620746FEC
:103D28006C6572616E6365206174207468652070CB
:103D38006172742E0D0A000020202020342E20539A
:103D480044494F206F70656E2063697263756974AA
:103D5800206265747765656E20746865207061728D
:103D68007420616E6420746865204D43552E0D0AD9
:103D7800000000002020426F74682072656164733F
:103D88002072657475726E203078464620726567B9
:103D98006172646C657373206F6620746865207047
:103DA80061726B6564206C6576656C2E0D0A000087
:103DB8002020546865206E657420697320626569E7
:103DC8006E672070756C6C65642068696768202D63
:103DD8002065697468657220627920612070756C4D
:103DE8006C2D7570207265736973746F720D0A009B
:103DF80020206F6E2074686520626F617264206F86
:103E08007220627920616E2061637469766520642E
:103E180072697665722E205468657365206C6F6FC1
:103E28006B206964656E746963616C0D0A0000003B
:103E3800202066726F6D20686572652C206275742B
:103E4800206E6F74652074686174206966207468D8
:103E580065204144393531382077657265206472B0
:103E68006976696E672C205041525449440D0A0006
:103E78002020776F756C642062652061207265610F
:103E88006C2076616C756520726174686572207447
:103E980068616E20616C6C206F6E65732E20536FA5
:103EA80020746865206D6F73740D0A0020206C699A
:103EB8006B656C792072656164696E672069733A15
:103EC80020612070756C6C2D757020686F6C647340
:103ED80020746865206C696E6520616E6420746862
:103EE8006520706172742069730D0A002020737454
:103EF800696C6C2073696C656E742E204368656309
:103F08006B20666F722061205245534554206F72B2
:103F180020706F7765722D646F776E2070696E20E0
:103F2800746861742069730D0A00000020206173B1
:103F38007365727465642C20616E6420435320633A
:103F48006F6E74696E756974792061742074686520
:103F580020706172742773206F776E2070696E2EDF
:103F68000D0A00002020426F746820726561647336
:103F780020616772656520283078253032582920FD
:103F8800616E642069676E6F726520746865207061
:103F980061726B6564206C6576656C2E0D0A000095
:103FA8002020536F6D657468696E6720697320619E
:103FB80063746976656C792064726976696E6720C6
:103FC800746865206C696E6520776974682072650D
:103FD800616C20646174612C20736F0D0A0000000D
:103FE800202074686520706172742069732072657E
:103FF80073706F6E64696E672E2053757370656396
:10400800742073616D706C652070686173652C2015
:10401800626974206F72646572206F720D0A000005
:104028002020696E737472756374696F6E2066728E
:10403800616D696E67207261746865722074686169
:104048006E20776972696E672E0D0A0020204D690F
:1040580078656420726573756C743A207061727447
:1040680069616C6C792064726976656E2C20706168
:10407800727469616C6C7920666C6F6174696E67C3
:104088002E0D0A00202053757370656374206D61CE
:104098007267696E616C20647269766520737472E8
:1040A800656E6774682C206120736572696573207A
:1040B8007265736973746F722074686174206973B0
:1040C8000D0A00002020746F6F206C617267652CE8
:1040D800206F722065786365737369766520636104
:1040E8007061636974616E63652E20547279206112
:1040F80020736C6F776572206275732077697468B6
:104108000D0A000020206164393531385F706F7204
:10411800745F7365745F6269745F64656C61792844
:10412800292E0D0A000000006F6B00004641494C23
:10413800000000005B73656C66746573745D2077BE
:10414800726974652F726561646261636B20706166
:10415800747465726E7320746F2030783031370D47
:104168000A000000202077726F74652030782530AF
:104178003258207265616420307825303258202505
:10418800730D0A005B73656C66746573745D202536
:10419800642F2575207061747465726E7320666172
:1041A800696C65640D0A00005B73656C6674657301
:1041B800745D2062757320726F756E642D747269F8
:1041C800707320636F72726563746C790D0A0000F6
:1041D8005B6170706C795D2052454620256C7520B6
:1041E800487A2C2056434F20256C7520487A2C207D
:1041F8004F555420256C7520487A0D0A00000000A0
:104208002020202020202020523D257520413D25BA
:104218007520423D257520503D2575202056434F79
:104228006469763D2575202043486469763D257587
:104238000D0A00005B6170706C795D2056434F2059
:1042480063616C2C2077616974696E6720256C75D1
:10425800206D730D0A0000005B6170706C795D2041
:10426800736F66742073796E6320746F2072656C47
:1042780065617365206F75747075742064697669FB
:10428800646572730D0A00005B706C616E5D206E70
:104298006F206469766964657220636F6D62696E08
:1042A8006174696F6E207265616368657320256C3F
:1042B8007520487A0D0A00005B706C616E5D2065A0
:1042C8007861637420256C7520487A206E6F74209D
:1042D800726561636861626C653B206E65617265D9
:1042E800737420697320256C7520487A0D0A0000C4
:1042F8005B72656673776565705D2073656172636F
:1043080068696E6720666F722061207265666572E3
:10431800656E636520636F6E666967207468617493
:10432800206C6F636B730D0A0000000020204C4F57
:10433800434B454420776974682030783031433DD9
:104348003078253032582C2030783031385B375D62
:104358003D2564202830783031463D30782530328C
:1043680058290D0A00000000202030783031433DE4
:1043780030782530325820626961733D2564202DDC
:104388003E2030783031463D3078253032580D0A9D
:10439800000000005B72656673776565705D206E6E
:1043A8006F207265666572656E636520636F6E6601
:1043B800696775726174696F6E2070726F64756376
:1043C8006564206C6F636B0D0A0000002020546840
:1043D800697320706F696E74732075707374726579
:1043E800616D206F662074686520726567697374F3
:1043F8006572206D61702E205665726966793A0D76
:104408000A000000202020202D203235204D487A37
:104418002061637475616C6C792070726573656E68
:10442800742061742074686520524546494E207096
:10443800696E0D0A00000000202020202D20524522
:10444800465F53454C2070696E206C6F7720286951
:10445800742068617320612033306B2070756C6C38
:104468002D646F776E3B20686967682073656C659B
:104478006374732052454632290D0A0020202020FB
:104488002D206C6F6F702066696C74657220636F85
:104498006D706F6E656E747320706F70756C61747B
:1044A8006564206265747765656E20435020616E8F
:1044B800642056434F2074756E650D0A0000000095
:1044C8004C4F434B45440000756E6C6F636B6564DD
:1044D80000000000504C4C5F5242203D20307825AF
:1044E800303258202D206E6F2076616C69642072FE
:1044F8006561646261636B0D0A000000504C4C5F9B
:104508005242203D20307825303258202D3E20253B
:10451800730D0A005B64756D705D0D0A0000000084
:104528002020307825303358203D2030782530320F
:10453800580D0A0053434C4B206869676800000017
:1045480053434C4B206C6F7720000000332D776964
:1045580072650000342D7769726500006C6F6E67B4
:1045680020696E737472200073686F727420696EAC
:10457800737472006F66667365742062696E617227
:104588007900000074776F7320636F6D706C656DD0
:10459800656E74000D0A3D3D3D3D2041443936317C
:1045A80033206272696E672D7570203D3D3D3D0D6B
:1045B8000A00000063686970204944203D20307873
:1045C8002530325820286578706563742030782546
:1045D800303258290D0A0000414439363133206EF3
:1045E8006F7420726573706F6E64696E6720636F95
:1045F80072726563746C79206F6E207468652073BD
:10460800657269616C20706F72740D0A0000000099
:104618007370656564206772616465203D20256458
:10462800204D5350532C2072657175657374656401
:1046380020256C75204D5350530D0A005245515595
:104648004553544544205241544520455843454517
:104658004453204752414445202D20256C75203E67
:10466800202564204D5350530D0A00005741524EE7
:10467800494E473A2062656C6F772074686520342C
:1046880030204D535053206D696E696D756D3B2018
:1046980064796E616D696320706572666F726D61B1
:1046A8006E63650D0A0000002020202020202020B5
:1046B80020646567726164657320617420636C6F40
:1046C800636B20726174657320756E646572203443
:1046D80030204D5350530D0A00000000636F6E6682
:1046E8006967757265643A20696E7465726C656194
:1046F80076656420706172616C6C656C204C564400
:10470800532C2025732C20414E5349206C65766527
:104718006C730D0A0000000044434F2063617272FD
:1047280069657320746865206461746120636C6FC7
:10473800636B3B204F45422070696E206D75737422
:10474800206265206C6F7720666F72206F757470B9
:1047580075740D0A000000005B616439363133203E
:1047680064756D705D0D0A00202030782530325850
:10477800203D203078253032580D0A000000030013
:104788001000110012001300140015001600180084
:104798001B001C001D001F00F000F100F200F300D8
:1047A800900191019201930194019501E001E101C9
:1047B8003002000000A55AFF000000003C45000838
:1047C80048450008544500085C4500086445000851
:1047D800704500088182020408102083000001004F
:1047E80002000500080009000B000D00100014006D
:1047F80015001600170018003A00232D302B200052
:10480800686C4C0065666745464700303132333482
:104818003536373839414243444546003031323322
:1048280034353637383961626364656600000000E4
:08483800D4B8FF7F010000006D
:04484000B9010008B2
:0448440091010008D6
:10484800010000001000000000127A009001000032
:1048580014000020000000006C010020D40100209A
:104868003C020020000000000000000000000000E2
:104878000000000000000000000000000000000030
:104888000000000000000000000000000000000020
:104898000000000000000000000000000000000010
:04000005080027A127
:00000001FF
