:020000040800F2
:100000000050002099190008DB020008DD020008FA
:10001000DF020008E1020008E3020008000000001F
:10002000000000000000000000000000E5020008E1
:10003000E702000800000000E9020008EB020008E7
:10004000E1190008E1190008E1190008E1190008A8
:10005000E1190008E1190008E1190008E119000898
:10006000E1190008E1190008E1190008E119000888
:10007000E1190008E1190008E1190008E119000878
:10008000E1190008E1190008E1190008E119000868
:10009000E1190008E1190008E1190008E119000858
:1000A000E1190008E1190008E1190008E119000848
:1000B000E1190008E1190008E1190008E119000838
:1000C000E1190008E1190008E1190008E119000828
:1000D000E1190008E1190008E1190008E119000818
:1000E000E1190008E1190008E1190008000000000A
:1000F0000000000000000000000000000000000000
:0C01000000000000000000005FF808F1A3
:10010C000348044B834202D0034B03B1184770479A
:10011C001800002018000020000000000548064BC5
:10012C001B1AD90F01EBA301491002D0034B03B1E9
:10013C00184770471800002018000020000000002D
:10014C0010B5064C237843B9FFF7DAFF044B13B113
:10015C000448AFF300800123237010BD1800002069
:10016C00000000003C1A000808B5054B1BB10549FE
:10017C000548AFF30080BDE80840FFF7CFBF00BFD4
:10018C00000000001C0000203C1A00082DE9F04380
:10019C0087B002AD002402940394049405941C4B84
:1001AC009A6942F004029A619A6902F00402009280
:1001BC00009A9A6942F008029A619B6903F008035D
:1001CC000193019BDFF84C9022461821484600F021
:1001DC0045FD114F22460121384600F03FFD182302
:1001EC0002930126039604944FF00208CDF8148074
:1001FC002946484600F028FC029603960494CDF854
:10020C0014802946384600F01FFC07B0BDE8F08387
:10021C000010024000080140000C014072B6FEE7DD
:10022C0008B50E480E4B03604FF4827343604FF4D5
:10023C00004383600023C360036143614FF4007289
:10024C008261C3610362436283620A23C36201F069
:10025C0073F800B908BDFFF7E1FF00BF34000020C0
:10026C000030014010B590B006AC28220021204689
:10027C0001F0B1FB002301930293039304930593C4
:10028C000223069301230A9310230B93204600F0BC
:10029C00F3F860B90F2301930021029103910491AB
:1002AC00059101A800F01AFB18B910B010BDFFF7AA
:1002BC00B5FFFFF7B3FF08B500F090F8FFF7D2FFDA
:1002CC00FFF764FFFFF7ACFF00F044FDFEE7FEE72D
:1002DC00FEE7FEE7FEE7FEE770477047704708B59C
:1002EC0000F08EF808BD000082B00E4B9A6942F007
:1002FC0001029A619A6902F001020092009ADA698D
:10030C0042F08052DA61DB6903F080530193019B68
:10031C00054A536823F0E06343F08063536002B0F6
:10032C00704700BF001002400000014000B587B0CC
:10033C00002302930393049305930268124B9A4291
:10034C0002D007B05DF804FB03F560439A6942F4F0
:10035C0080529A619A6902F480520092009A9A69CA
:10036C0042F004029A619B6903F004030193019B20
:10037C00A0230293022303930323059302A90348AA
:10038C0000F062FBDDE700BF0030014000080140D7
:10039C0010B504460E4B1A784FF47A73B3FBF2F394
:1003AC000C4A1068B0FBF3F000F0BEFC68B90F2CDF
:1003BC0001D901200AE0002221464FF0FF3000F065
:1003CC00A3FC054B1C60002000E0012010BD00BF09
:1003DC0000000020080000200400002008B5074A97
:1003EC00136843F010031360032000F07BFC0F2014
:1003FC00FFF7CEFFFFF778FF002008BD002002407A
:10040C00034A1168034B1B780B441360704700BF01
:10041C008C00002000000020014B1868704700BFC2
:10042C008C00002038B50446FFF7F6FF0546B4F102
:10043C00FF3F02D0044B1B781C44FFF7EDFF401B21
:10044C00A042FAD338BD00BF0000002082B0084B98
:10045C001B68084AA2FB03235B0A00FB03F301930E
:10046C0000BF019B5A1E0192002BF9D102B07047BC
:10047C0008000020D34D6210002800F0F18170B507
:10048C0082B00446036813F0010F2CD0994B5B68C3
:10049C0003F00C03042B1DD0964B5B6803F00C038C
:1004AC00082B12D06368B3F5803F41D0002B55D197
:1004BC0003F1804303F504331A6822F480321A6086
:1004CC001A6822F480221A6037E08A4B5B6813F4B6
:1004DC00803FE7D0874B1B6813F4003F03D0636861
:1004EC00002B00F0BF81236813F0020F75D0814BF5
:1004FC005B6813F00C0F5FD07E4B5B6803F00C0352
:10050C00082B54D02369002B00F08A807A4B0122EF
:10051C001A60FFF781FF0546764B1B6813F0020F3C
:10052C0075D1FFF779FF401B0228F5D903209EE116
:10053C00704A136843F480331360636843B3FFF766
:10054C006BFF05466B4B1B6813F4003FCBD1FFF7D9
:10055C0063FF401B6428F5D9032088E1B3F5A02F75
:10056C0009D0644B1A6822F480321A601A6822F49B
:10057C0080221A60E1E703F18043A3F53C331A684B
:10058C0042F480221A601A6842F480321A60D4E76E
:10059C00FFF742FF0546574B1B6813F4003FA2D0F0
:1005AC00FFF73AFF401B6428F5D903205FE1514B5C
:1005BC005B6813F4803FA5D14E4B1B6813F0020F00
:1005CC0003D02369012B40F04F814A4A136823F072
:1005DC00F803616943EAC1031360236813F0080F41
:1005EC0033D0A369002B5CD0434B0122C3F8802489
:1005FC00FFF712FF05463F4B5B6A13F0020F21D148
:10060C00FFF70AFF401B0228F5D903202FE1394AD6
:10061C00136823F0F803616943EAC1031360DCE754
:10062C00354B00221A60FFF7F7FE0546314B1B686D
:10063C0013F0020FD1D0FFF7EFFE401B0228F5D9C3
:10064C00032014E10120FFF701FF236813F0040FCE
:10065C0000F09680274BDB6913F0805F34D1254B7B
:10066C00DA6942F08052DA61DB6903F0805301935E
:10067C00019B0125214B1B6813F4807F26D0E36876
:10068C00012B3DD0002B53D103F1804303F50433F0
:10069C001A6A22F001021A621A6A22F004021A6221
:1006AC0033E0154B0022C3F88024FFF7B5FE054656
:1006BC00104B5B6A13F0020FC7D0FFF7ADFE401B67
:1006CC000228F5D90320D2E00025D3E70B4A1368A2
:1006DC0043F480731360FFF79FFE0646074B1B68BD
:1006EC0013F4807FCBD1FFF797FE801B6428F5D9DC
:1006FC000320BCE0001002400000424200700040A9
:10070C005F4A136A43F001031362E36833B3FFF7E4
:10071C0083FE06465A4B1B6A13F0020F2FD1FFF7CC
:10072C007BFE801B41F288339842F3D903209EE074
:10073C00052B09D0524B1A6A22F001021A621A6A6E
:10074C0022F004021A62E0E74D4B1A6A42F00402EE
:10075C001A621A6A42F001021A62D6E7FFF75CFECF
:10076C000646474B1B6A13F0020F08D0FFF754FEE6
:10077C00801B41F288339842F3D9032077E0E5B926
:10078C00E369002B72D03E4A526802F00C02082A30
:10079C0056D0022B17D03B4B00221A66FFF73CFEBB
:1007AC000446374B1B6813F0007F47D0FFF734FE2D
:1007BC00001B0228F5D9032059E0314AD36923F0F4
:1007CC008053D361DCE72F4B00221A66FFF724FE1F
:1007DC0005462B4B1B6813F0007F06D0FFF71CFE61
:1007EC00401B0228F5D9032041E0236AB3F5803F72
:1007FC001AD023494B6823F47413226A606A0243AB
:10080C0013434B601F4B01221A66FFF705FE04468B
:10081C001B4B1B6813F0007F0ED1FFF7FDFD001B77
:10082C000228F5D9032022E0154A536823F400333B
:10083C00A1680B435360DCE7002018E0002016E0B1
:10084C00012B16D00E4B5B6803F48031226A914267
:10085C0011D103F47013626A93420ED1002006E0AA
:10086C0001207047012002E0012000E0002002B0CE
:10087C0070BD0120FBE70120F9E70120F7E700BF7D
:10088C0000100240000042420F4B5B6803F00C0268
:10089C00082A01D00D487047C3F383420C49885C89
:1008AC0013F4803F0BD0084B5B68C3F34043094AF9
:1008BC00D35C064A02FB00F0B0FBF3F07047064B2A
:1008CC0003FB00F0704700BF0010024000127A00DA
:1008DC00581A0008541A000800093D00002800F0BE
:1008EC00A08070B50D460446524B1B6803F00703FD
:1008FC008B420BD24F4A136823F007030B43136050
:10090C00136803F007038B4240F08D80236813F0CB
:10091C00020F17D013F0040F04D0474A536843F466
:10092C00E0635360236813F0080F04D0424A536805
:10093C0043F460535360404A536823F0F003A168BA
:10094C000B435360236813F0010F31D06368012B04
:10095C0020D0022B25D0384A126812F0020F64D036
:10096C0035494A6822F0030213434B60FFF754FDEC
:10097C000646314B5B6803F00C036268B3EB820FE5
:10098C0016D0FFF749FD801B41F288339842F0D90D
:10099C00032045E0284A126812F4003FE0D1012000
:1009AC003EE0254A126812F0007FD9D1012037E0D1
:1009BC00204B1B6803F00703AB420AD91D4A13688E
:1009CC0023F007032B431360136803F00703AB42B8
:1009DC002DD1236813F0040F06D0174A536823F463
:1009EC00E063E1680B435360236813F0080F07D0F2
:1009FC00114A536823F46053216943EAC1035360DD
:100A0C00FFF742FF0C4B5B68C3F303130B4AD35C39
:100A1C00D8400B4B18600B4B1868FFF7B9FC002043
:100A2C0070BD012070470120FAE70120F8E7012092
:100A3C00F6E700BF0020024000100240681A0008D0
:100A4C00080000200400002070B582B00024A446E9
:100A5C009EE07C4DAB4214D00CD8A5F58015AB4272
:100A6C000FD005F57025AB420BD0A5F58015AB4228
:100A7C001FD106E0744DAB4203D005F58035AB4277
:100A8C0017D18B68A3B1012B0DD04261082410E063
:100A9C00CC680EE0CC6804340BE0CC68083408E079
:100AAC00CC680C3405E00261082402E0002400E06C
:100ABC000424BEF1FF0F37D806464FEA8C02336888
:100ACC000F25954023EA050304FA02F21343336021
:100ADC004B6813F0805F59D05C4B9A6942F001026D
:100AEC009A619B6903F001030193019B4FEA9C02FD
:100AFC00951C574B53F825600CF00305AD000F23E4
:100B0C00AB4026EA0306534B984214D003F580639E
:100B1C00984279D003F58063984277D003F58063CF
:100B2C00984206D0042307E0061DACF1080292009F
:100B3C00C5E7032300E00023AB4033430232444DAE
:100B4C0045F822304B6813F4801F61D0424A9368F9
:100B5C0043EA0E0393604B6813F4001F5ED03E4AC9
:100B6C00D36843EA0E03D3604B6813F4003F5BD0A9
:100B7C00394A536843EA0E0353604B6813F4803FC1
:100B8C0058D0354A136843EA0E0313600CF1010C7C
:100B9C000B6833FA0CF253D0012202FA0CF203EA7E
:100BAC00020E32EA0303F1D14B68122B3FF651AF20
:100BBC00122B3FF67EAF01A555F823F08F0A0008E3
:100BCC009D0A0008A70A0008B90A0008BF0A000815
:100BDC00BF0A0008BF0A0008BF0A0008BF0A0008C5
:100BEC00BF0A0008BF0A0008BF0A0008BF0A0008B5
:100BFC00BF0A0008BF0A0008BF0A0008BF0A0008A5
:100C0C00A10A0008AD0A0008012395E7022393E727
:100C1C00114A936823EA0E0393609CE70E4AD3684B
:100C2C0023EA0E03D3609FE70B4A536823EA0E03B3
:100C3C005360A2E7084A136823EA0E031360A5E782
:100C4C0002B070BD000022100000311000100240F4
:100C5C000000014000080140000401400AB101619C
:100C6C007047090401617047C36801EA030221EA75
:100C7C00030141EA0241016170470000002808DBD2
:100C8C000901C9B200F1604000F5614080F8001321
:100C9C00704700F00F000901C9B2014B195470479D
:100CAC0014ED00E000B500F00700C0F1070CBCF13A
:100CBC00040F28BF4FF0040C031D062B0FD9C31EC5
:100CCC004FF0FF3E0EFA0CF021EA000199400EFAAB
:100CDC0003FE22EA0E0241EA02005DF804FB002347
:100CEC00EEE70000074AD36823F4E0631B041B0CF7
:100CFC00000200F4E060034343F0BF6343F40033AD
:100D0C00D360704700ED00E010B50446054BD86881
:100D1C00C0F30220FFF7C6FF01462046FFF7AEFFE7
:100D2C0010BD00BF00ED00E00138B0F1807F0BD2A8
:100D3C004FF0E0235861054AF02182F8231000207F
:100D4C00986107221A6170470120704700ED00E09E
:100D5C0070470000F0B585B0274C012208212046D1
:100D6C00FFF77CFF012210212046FFF777FF0023BD
:100D7C008DF80F300DF10F01204800F08DF89DF823
:100D8C000F40632C2FD11D4D0021284600F08AF80E
:100D9C000026009601960296194F6B463A4631464C
:100DAC00284600F015F901AB3A460121284600F01F
:100DBC000FF902AB134A0221284600F009F901226F
:100DCC003146284600F056F901221146284600F01B
:100DDC0051F932460221284600F04CF903E04FF459
:100DEC007A70FFF71FFB01210748FFF73DFF632CCB
:100DFC00F5D09620F5E700BF000801400C0000205C
:100E0C0080B2E60E00E1F505000C0140012814D972
:100E1C00002313604308013BDBB200F001001844CF
:100E2C00C0B20F2B00D90F230F2800D90F2000F0D0
:100E3C000F0040EA03100870704701231360002371
:100E4C000B70704700B583B0C1F303238DF80430E9
:100E5C008DF805108DF806200368032101A898472A
:100E6C0003B05DF804FB10B582B0C1F30B0141F483
:100E7C0000410B0A8DF804308DF8051044680123ED
:100E8C00022101A8A04702B010BD08B5012240F212
:100E9C003221FFF7D7FF08BD08B50A460321FFF73B
:100EAC00E2FF08BD38B50446002900F08D80992575
:100EBC0045F0240200212046FFF7C4FF0028C0F2B1
:100ECC0082802A4600212046FFF7BCFF00287ADBEF
:100EDC007D2210212046FFF7B5FF002873DB01228D
:100EEC0011212046FFF7AEFF00286CDB00221221F7
:100EFC002046FFF7A7FF002865DB002213212046C0
:100F0C00FFF7A0FF00285EDB052214212046FFF727
:100F1C0099FF002857DB002215212046FFF792FF8E
:100F2C00002850DB062216212046FFF78BFF0028F5
:100F3C0049DB002217212046FFF784FF002842DB03
:100F4C00002218212046FFF77DFF00283BDB002202
:100F5C0019212046FFF776FF002834DB00221B21E5
:100F6C002046FFF76FFF00282DDB00224FF4F071B5
:100F7C002046FFF767FF002825DB022240F2E11133
:100F8C002046FFF75FFF00281DDB00224FF40C7199
:100F9C002046FFF757FF002815DB2046FFF775FFAB
:100FAC00002810DB012218212046FFF74BFF0028F8
:100FBC0009DB2046FFF769FF002804DBA3682BB18F
:100FCC000A209847002038BD182571E70020FAE761
:100FDC00022944D8F0B583B007460C461E46002AB9
:100FEC0040D0234B03EB5203B3FBF2F5934203D3F4
:100FFC00202D02D9202500E001256A460DF10701BC
:10100C00E8B2FFF703FF04EB44049DF8072004F556
:10101C00C8713846FFF716FF00281CDB009BE3B9AC
:10102C00002204F291113846FFF70CFF002812DB66
:10103C00002204F5C9713846FFF704FF00280ADBCB
:10104C003846FFF722FF002805DB76B1084BB3FBCF
:10105C00F5F33360002003B0F0BD8022E1E74FF0E0
:10106C00FF3070474FF0FF30F5E70020F3E700BF8B
:10107C0000CA9A3B02291CD870B504464900C9B273
:10108C004B1CDDB29AB108263246F0312046FFF7F0
:10109C00D9FE00280ADB324605F1F0012046FFF7A5
:1010AC00D1FE002802DB2046FFF7EFFE70BD0B26B9
:1010BC00EAE74FF0FF307047054A11680B6823F0E0
:1010CC0040030B601268136843F48043136070474D
:1010DC0034000020054A11680B6823F040030B60B4
:1010EC001268136823F480431360704734000020A7
:1010FC0008B5FFF797F908BDF8B504460D46164636
:10110C001F46002208211948FFF7A8FDFFF7D4FF5E
:10111C004FF0FF332A462146154800F068F9C8B94C
:10112C00FFF7D8FF124D4FF0FF333A4631462846B1
:10113C0000F068FB04462A68136823F04003136030
:10114C00012208210948FFF789FDFFF7B5FF4CB9CB
:10115C000020F8BD012208210448FFF77FFD4FF065
:10116C00FF30F6E74FF0FF30F3E700BF0008014017
:10117C003400002070B504460D460D4E00220821A7
:10118C003046FFF76BFDFFF797FF4FF0FF332A4612
:10119C002146084800F02BF904460122082130466C
:1011AC00FFF75CFD0CB9002070BD4FF0FF30FBE782
:1011BC0000080140340000202DE9F04782B00546BC
:1011CC00884617461E46FFF727F90A9B1B1A03EBA6
:1011DC000609FFF721F98246284B1B68C3F3CB3372
:1011EC0009FB03F301932B689C6838EA04040CBFD9
:1011FC0001230023BB423DD0B6F1FF3FF3D0FFF7F4
:10120C000BF9A0EB0A00484507D2019A02B14A46F5
:10121C00019B013B01939146E5E72A68536823F053
:10122C00E00353606B68B3F5827F0BD0AB6AB3F508
:10123C00005F14D0012385F85130002385F850301D
:10124C00032018E0AB68B3F5004F02D0B3F5806F04
:10125C00ECD12A68136823F040031360E6E72A6890
:10126C00136823F4005313602A68136843F4005383
:10127C001360DFE7002002B0BDE8F0870800002013
:10128C0070B582B006460C46154600920B460122FC
:10129C000221FFF791FF48B90095234600228021D7
:1012AC003046FFF789FF38B902B070BD736D43F05B
:1012BC00200373650320F7E7736D43F02003736518
:1012CC000320F1E710B582B004460B464168B1F536
:1012DC00827F10D06168B1F5827F03D1A168B1F52E
:1012EC00806F15D00092002280212046FFF764FF0A
:1012FC00E0B902B010BD8168B1F5004F02D0B1F574
:10130C00806FE7D12068016821F040010160E1E7BE
:10131C000092002201212046FFF74EFF0028E8D062
:10132C00636D43F0200363650320E2E7636D43F0D4
:10133C00200363650320DCE7002856D010B5044673
:10134C00436A33B94368B3F5827F05D00023C36188
:10135C0002E00023036143610023A36294F851303F
:10136C00002B3CD0022384F851302268136823F000
:10137C0040031360636803F48273A26802F40442AE
:10138C001343E26802F400621343226902F0020282
:10139C001343626902F001021343A26902F4007262
:1013AC001343E26902F038021343226A02F080020E
:1013BC001343A26A02F40052216813430B60638B3F
:1013CC00226803F0040353602268D36923F400639A
:1013DC00D36100206065012384F8513010BD84F87E
:1013EC0050302046FEF7A2FFBCE7012070472DE9E4
:1013FC00F04383B00446894690461D46FFF70CF82F
:10140C0094F85130012B40F0CD800646DFB2B9F193
:10141C00000F00F0C880B8F1000F00F0C48094F801
:10142C005030012B00F0C380012384F8503003238B
:10143C0084F8513000236365C4F83090A4F83480EC
:10144C00A4F83680A363A387E38763642364A3684B
:10145C00B3F5004F1ED023681A6812F0400F03D169
:10146C001A6842F040021A60E368B3F5006F1CD0B2
:10147C00636813B1B8F1010F5FD1226B2368127846
:10148C001A73236B01332363E38E9BB2013B9BB234
:10149C00E38652E02268136823F04003136022684D
:1014AC00136843F480431360D5E7636813B1B8F154
:1014BC00010F15D1226B23681288DA60236B02337B
:1014CC002363E38E9BB2013B9BB2E38608E0FEF7FD
:1014DC00A3FF801BA84202D3B5F1FF3F15D1A5B1E4
:1014EC00E38E9BB2002B42D023689A6812F0020F55
:1014FC00EDD0226B1288DA60236B02332363E38E08
:10150C009BB2013B9BB2E386EAE7012384F851309E
:10151C00002384F85030032745E0226B12781A73AD
:10152C00236B01332363B4F836C01FFA8CFC0CF127
:10153C00FF3C1FFA8CFCA4F836C0E38E9BB2B3B10F
:10154C0023689A6812F0020FE7D1FEF765FF801B43
:10155C00A84202D3B5F1FF3F01D1002DEDD10123FB
:10156C0084F85130002384F8503003271BE03246B6
:10157C0029462046FFF784FE08B120236365A36843
:10158C0033B901932368DA6801929B680193019B3C
:10159C00012384F85130002384F85030636D13B963
:1015AC00002700E00227384603B0BDE8F08302278D
:1015BC00F9E72DE9F04383B00446884691461F466F
:1015CC000A9DFEF729FF064694F851306268012BFC
:1015DC000BD0D9B2B2F5827F40F00481A368002B06
:1015EC0040F00481042940F00381B8F1000F00F0B1
:1015FC000181B9F1000F00F0FF80002F00F0FE8098
:10160C0094F85030012B00F0FB80012384F850300B
:10161C0094F85130042B02D0052384F85130002368
:10162C006365C4F83890E787A787C4F83080E786ED
:10163C00A7862364636423681A6812F0400F03D1F1
:10164C001A6842F040021A60E368B3F5006F11D0DB
:10165C0063680BB1012F0BD1226B236812781A73BC
:10166C00236B01332363E38E9BB2013B9BB2E38676
:10167C00012771E063680BB1012F0BD1226B23683A
:10168C001288DA60236B02332363E38E9BB2013B37
:10169C009BB2E38601271BE023689A6812F0010FC6
:1016AC000ED0E28F92B25AB1DA68A36B1A80A36B98
:1016BC000233A363E38F9BB2013B9BB2E387012709
:1016CC00FEF7AAFE801BA84202D3B5F1FF3F1ED144
:1016DC00E38E9BB21BB9E38F9BB2002B62D02368C5
:1016EC009A6812F0020FD7D0E28E92B2002AD3D0B1
:1016FC00002FD1D0226B1288DA60236B0233236364
:10170C00E38E9BB2013B9BB2E3860027C4E7012327
:10171C0084F85130002384F85030032063E02368B0
:10172C009A6812F0010F0ED0E28F92B25AB1DA68B9
:10173C00A36B1A70A36B0133A363E38F9BB2013BC2
:10174C009BB2E3870127FEF767FE831BAB4202D3F4
:10175C00B5F1FF3F1ED1EDB1E38E9BB213B9E38F10
:10176C009BB2FBB123689A6812F0020FD7D0E28EBD
:10177C0092B2002AD3D0002FD1D0226B12781A73D8
:10178C00236B01332363E38E9BB2013B9BB2E38655
:10179C000027C4E7012384F85130002384F850302B
:1017AC00032020E0324629462046FFF769FD90B918
:1017BC00A36833B901932368DA6801929B6801939B
:1017CC00019B012384F85130002384F85030636D61
:1017DC004BB1012007E020236365002384F85030CF
:1017EC00012000E0022003B0BDE8F0830220FAE7FC
:1017FC000220F8E70120F6E70120F4E70120F2E7E8
:10180C000220F0E72DE9F04383B01D4690F85130EB
:10181C00012B40F0B480044689469046DFB2436801
:10182C00B3F5827F01D1836893B3FEF7F5FD0646CD
:10183C00B9F1000F00F0A480B8F1000F00F0A08007
:10184C0094F85030012B00F09F80012384F8503025
:10185C00042384F8513000236365C4F83890A4F84D
:10186C003C80A4F83E802363A386E38623646364F0
:10187C00A368B3F5004F15D023681A6812F0400F17
:10188C0003D11A6842F040021A60E368F3B143E0F6
:10189C00042380F85130009513460A46FFF789FE61
:1018AC0007466DE02268136823F04003136022683A
:1018BC00136823F480431360DEE7FEF7ADFD801B55
:1018CC00A84202D3B5F1FF3F15D1A5B1E38F9BB26E
:1018DC00002B42D023689A6812F0010FEDD0A26B56
:1018EC001B7B1370A36B0133A363E38F9BB2013B90
:1018FC009BB2E387EAE7012384F85130002384F894
:10190C00503003273CE0FEF787FD801BA84202D332
:10191C00B5F1FF3F19D1C5B1E38F9BB2EBB1236891
:10192C009A6812F0010FEED0DA68A36B1A80A36BE1
:10193C000233A363B4F83EC01FFA8CFC0CF1FF3CDD
:10194C001FFA8CFCA4F83EC0E6E7012384F8513062
:10195C00002384F85030032712E0324629462046F3
:10196C00FFF7B0FC08B120236365012384F85130E4
:10197C00002384F85030636D13B9002700E0022770
:10198C00384603B0BDE8F0830227F9E7FFF7E0F92A
:10199C000B480C490C4A002302E0D458C4500433C1
:1019AC00C4188C42F9D3094A094C002301E0136096
:1019BC000432A242FBD300F017F8FEF77CFC704710
:1019CC000000002018000020801A000818000020D9
:1019DC0090000020FEE703460244934200D170477A
:1019EC0003F8011BF9E7000070B500260C4D0D4BF8
:1019FC005B1B9C10A64209D1002600F019F80A4D79
:101A0C000A4B5B1B9C10A64205D170BD55F8043BDC
:101A1C0098470136EEE755F8043B98470136F2E754
:101A2C00781A0008781A0008781A00087C1A00083E
:101A3C00F8B500BFF8BC08BC9E467047F8B500BFAF
:081A4C00F8BC08BC9E4670477F
:101A54000102000002030405060708090A0B0C0D25
:101A64000E0F10100000000000000000010203042B
:041A74000607080950
:041A780075010008EC
:041A7C004D01000810
:101A8000010000001000000000127A00811100081F
:081A900005110008FD1000081B
:04000005080019993D
:00000001FF
